:100000000C9472000C9493000C9493000C94930045
:100010000C9493000C9493000C9493000C94930014
:100020000C9493000C9493000C9493000C94930004
:100030000C9493000C9493000C9493000C949300F4
:100040000C9493000C9493000C9493000C949300E4
:100050000C9493000C9493000C9493000C949300D4
:100060000C9493000C9493000C9493000C949300C4
:100070000C9493000C9493000C9493000C949300B4
:100080000C9493000C9493000C9493000C949300A4
:100090000C9493000C9493000C9493000C94930094
:1000A0000C9493000C9493000C9493000C94930084
:1000B0000C9493000C9493000C9493000C94930074
:1000C0000C9493000C9493000C9493000C94930064
:1000D0000C9493000C9493000C94A5000C94930042
:1000E0000C94930011241FBECFEFD1E2DEBFCDBF31
:1000F00000E00CBF12E0A0E0B2E0E6E2F6E000E0D3
:100100000BBF02C007900D92A430B107D9F712E0DF
:10011000A4E0B2E001C01D92A533B107E1F70E944F
:10012000EA000C9411030C940000E1E3F1E010826A
:100130001092300186E0809332018FE58093340184
:100140001092350188E9808308951F920F920FB6AF
:100150000F920BB60F9211242F933F938F939F937F
:10016000EF93FF938091360180932802209104023F
:100170003091050280910002909101022817390701
:1001800021F41092050210920402809104029091D1
:10019000050220912802FC01E85FFD4F20830196B3
:1001A0009093050280930402FF91EF919F918F91AC
:1001B0003F912F910F900BBE0F900FBE0F901F908D
:1001C0001895F8940E9438010E94A7010E9495009A
:1001D00078940895CF93DF93CDB7DEB7A0970FB68D
:1001E000F894DEBF0FBECDBF0E94E10080E090E03A
:1001F00008E012E0EE24FF240F2EF8E1CF2EF2E00B
:10020000DF2EF02DAA24BB246894A4F80CC0A1E032
:10021000B0E0AC0FBD1FA80FB91FF801E80FF91F20
:1002200020812C930196803191058CF380910002FE
:1002300090910102803191055CF0F601DE0151964A
:10024000950141914D932F5F3F4F82179307CCF754
:1002500081E061E0AE014F5F5F4F0E94100282E0DB
:1002600061E0AE014F5E5F4F0E941002C701DBCF1D
:1002700087B1876F87B988B1887088B9089586E695
:100280009EE00197F1F700004098419880E388B91B
:10029000429AEFEFF7E43197F1F700C0000042987F
:1002A000E6E6FEE03197F1F700004098419888B902
:1002B000429AEFEFF7E43197F1F700C0000042985F
:1002C000E6E6FEE03197F1F700004098419888B9E2
:1002D000429A8FEF97E40197F1F700C0000042982F
:1002E000E6E6FEE03197F1F700004098419880E2A1
:1002F00088B9429A8FEF97E40197F1F700C00000A8
:100300004298089598B19F7098B998B1282F207F8E
:10031000922B98B940984198429AEFEFF7E43197C1
:10032000F1F700C00000429898B19F7098B998B159
:100330008295807F892B88B940984198429A8FEFA7
:1003400097E40197F1F700C00000429808950E94D9
:100350003F0186E69EE00197F1F7000088E20E94E7
:10036000820181E00E94820186E00E9482018EE08B
:100370000E94820180E80E948201089580E80E9424
:1003800082010895823079F0833018F48130C9F405
:1003900005C0833069F08430A1F40FC0862F8158E6
:1003A0000E9482010895862F81540E94820108953F
:1003B000862F8D560E9482010895862F8D520E94AD
:1003C0008201089581E00E9482010895CF93C42F95
:1003D0000E94C20188B18F7088B988B19C2F907F2C
:1003E000892B88B9409A4198429A8FEF97E40197F8
:1003F000F1F700C00000429888B18F7088B988B1C9
:10040000C295C07FC82BC8B9409A4198429A8FEFD5
:1004100097E40197F1F700C000004298CF9108954A
:100420000F931F93CF93DF93D82FC62FFA014081EC
:10043000442369F08F010F5F1F4F8D2F6C2F0E9497
:10044000E601CF5FF80141918F014423B1F7DF91BD
:10045000CF911F910F910895EF92FF920F931F93E9
:10046000CF93DF93D82FC62F7A0189010E94C20152
:10047000FF205CF4F094E194F108F3948D2F6C2F3D
:1004800042E052E00E941002CF5FDD2311F0CC2346
:1004900019F40E94BE0104C08D2F6C2F0E94C2016E
:1004A0000530110591F4C70160E177E20E94FE0278
:1004B000AB01405D5F4F50932A02409329028D2F7C
:1004C0006C2F0E94E601CF5F03C004301105E1F4F8
:1004D000C70168EE73E00E94FE02CB0170932C020C
:1004E00060932B026AE070E00E94EA02AC01405D7A
:1004F0005F4F50933402409333028D2F6C2F0E9434
:10050000E601CF5F81E001C080E00330110511F00A
:100510008130D9F4C70164E670E00E94FE02CB018D
:1005200070932C0260932B026AE070E00E94EA0252
:10053000AC01405D5F4F5093300240932F028D2FEE
:100540006C2F0E94E601CF5F81E00230110511F0AF
:100550008130D9F42AE030E0C701B9010E94FE02DF
:10056000CB0170932C0260932B02B9010E94EA0226
:10057000AC01405D5F4F50932E0240932D028D2FB2
:100580006C2F0E94E601CF5F81E00130110511F070
:10059000813089F4C7016AE070E00E94FE02AC017C
:1005A000405D5F4F50933202409331028D2F6C2F8C
:1005B0000E94E601CF5F063011052CF08D2F6C2FC5
:1005C00045E40E94E601DF91CF911F910F91FF90CA
:1005D000EF900895AA1BBB1B51E107C0AA1FBB1FC8
:1005E000A617B70710F0A61BB70B881F991F5A95BF
:1005F000A9F780959095BC01CD01089597FB092E30
:1006000007260AD077FD04D0E5DF06D000201AF4D3
:10061000709561957F4F0895F6F7909581959F4F5E
:060620000895F894FFCFDD
:0406260020002D0083
:00000001FF
